{
  "_format": "hh-sol-artifact-1",
  "contractName": "DecentralizedDeliveryService",
  "sourceName": "contracts/BlockBite.sol",
  "abi": [
    {
      "inputs": [
        {
          "internalType": "address",
          "name": "_governanceToken",
          "type": "address"
        },
        {
          "internalType": "address",
          "name": "_transactionCurrencyToken",
          "type": "address"
        }
      ],
      "stateMutability": "nonpayable",
      "type": "constructor"
    },
    {
      "anonymous": false,
      "inputs": [
        {
          "indexed": true,
          "internalType": "address",
          "name": "customer",
          "type": "address"
        },
        {
          "indexed": false,
          "internalType": "uint256",
          "name": "amount",
          "type": "uint256"
        }
      ],
      "name": "CustomerReputationIncreased",
      "type": "event"
    },
    {
      "anonymous": false,
      "inputs": [
        {
          "indexed": true,
          "internalType": "address",
          "name": "deliverer",
          "type": "address"
        },
        {
          "indexed": false,
          "internalType": "uint256",
          "name": "amount",
          "type": "uint256"
        }
      ],
      "name": "DelivererReputationDecreased",
      "type": "event"
    },
    {
      "anonymous": false,
      "inputs": [
        {
          "indexed": true,
          "internalType": "address",
          "name": "deliverer",
          "type": "address"
        },
        {
          "indexed": false,
          "internalType": "uint256",
          "name": "amount",
          "type": "uint256"
        }
      ],
      "name": "DelivererReputationIncreased",
      "type": "event"
    },
    {
      "anonymous": false,
      "inputs": [
        {
          "indexed": false,
          "internalType": "uint256",
          "name": "orderId",
          "type": "uint256"
        },
        {
          "indexed": false,
          "internalType": "address",
          "name": "deliverer",
          "type": "address"
        }
      ],
      "name": "OrderAccepted",
      "type": "event"
    },
    {
      "anonymous": false,
      "inputs": [
        {
          "indexed": false,
          "internalType": "uint256",
          "name": "orderId",
          "type": "uint256"
        },
        {
          "indexed": false,
          "internalType": "address",
          "name": "by",
          "type": "address"
        }
      ],
      "name": "OrderCancelled",
      "type": "event"
    },
    {
      "anonymous": false,
      "inputs": [
        {
          "indexed": false,
          "internalType": "uint256",
          "name": "orderId",
          "type": "uint256"
        }
      ],
      "name": "OrderCompleted",
      "type": "event"
    },
    {
      "anonymous": false,
      "inputs": [
        {
          "indexed": false,
          "internalType": "uint256",
          "name": "orderId",
          "type": "uint256"
        },
        {
          "indexed": false,
          "internalType": "address",
          "name": "customer",
          "type": "address"
        },
        {
          "indexed": false,
          "internalType": "bytes",
          "name": "encryptedParams",
          "type": "bytes"
        }
      ],
      "name": "OrderCreated",
      "type": "event"
    },
    {
      "anonymous": false,
      "inputs": [
        {
          "indexed": true,
          "internalType": "address",
          "name": "previousOwner",
          "type": "address"
        },
        {
          "indexed": true,
          "internalType": "address",
          "name": "newOwner",
          "type": "address"
        }
      ],
      "name": "OwnershipTransferred",
      "type": "event"
    },
    {
      "anonymous": false,
      "inputs": [
        {
          "indexed": true,
          "internalType": "address",
          "name": "deliverer",
          "type": "address"
        },
        {
          "indexed": false,
          "internalType": "uint256",
          "name": "amount",
          "type": "uint256"
        }
      ],
      "name": "TokensSlashed",
      "type": "event"
    },
    {
      "inputs": [],
      "name": "SLASHING_PERCENTAGE",
      "outputs": [
        {
          "internalType": "uint256",
          "name": "",
          "type": "uint256"
        }
      ],
      "stateMutability": "view",
      "type": "function"
    },
    {
      "inputs": [
        {
          "internalType": "uint256",
          "name": "orderId",
          "type": "uint256"
        }
      ],
      "name": "acceptOrder",
      "outputs": [],
      "stateMutability": "nonpayable",
      "type": "function"
    },
    {
      "inputs": [
        {
          "internalType": "uint256",
          "name": "orderId",
          "type": "uint256"
        }
      ],
      "name": "cancelAfter3Hours",
      "outputs": [],
      "stateMutability": "nonpayable",
      "type": "function"
    },
    {
      "inputs": [
        {
          "internalType": "uint256",
          "name": "orderId",
          "type": "uint256"
        }
      ],
      "name": "cancelOrder",
      "outputs": [],
      "stateMutability": "nonpayable",
      "type": "function"
    },
    {
      "inputs": [
        {
          "internalType": "address",
          "name": "_newGovernanceToken",
          "type": "address"
        },
        {
          "internalType": "address",
          "name": "_transactionCurrencyToken",
          "type": "address"
        }
      ],
      "name": "changeGovernanceTokenDEMOAdmin",
      "outputs": [],
      "stateMutability": "nonpayable",
      "type": "function"
    },
    {
      "inputs": [
        {
          "internalType": "uint256",
          "name": "_requiredReputation",
          "type": "uint256"
        },
        {
          "internalType": "uint256",
          "name": "_reputationLevel",
          "type": "uint256"
        }
      ],
      "name": "changeReputationLevelsDEMOAdmin",
      "outputs": [],
      "stateMutability": "nonpayable",
      "type": "function"
    },
    {
      "inputs": [
        {
          "internalType": "uint256",
          "name": "orderId",
          "type": "uint256"
        },
        {
          "internalType": "bytes",
          "name": "_customerSignature",
          "type": "bytes"
        }
      ],
      "name": "completeOrder",
      "outputs": [],
      "stateMutability": "nonpayable",
      "type": "function"
    },
    {
      "inputs": [
        {
          "internalType": "bytes",
          "name": "encryptedParams",
          "type": "bytes"
        },
        {
          "internalType": "uint256",
          "name": "tokenAmount",
          "type": "uint256"
        }
      ],
      "name": "createOrder",
      "outputs": [],
      "stateMutability": "nonpayable",
      "type": "function"
    },
    {
      "inputs": [
        {
          "internalType": "address",
          "name": "",
          "type": "address"
        }
      ],
      "name": "customerReputation",
      "outputs": [
        {
          "internalType": "uint256",
          "name": "",
          "type": "uint256"
        }
      ],
      "stateMutability": "view",
      "type": "function"
    },
    {
      "inputs": [
        {
          "internalType": "uint256",
          "name": "",
          "type": "uint256"
        }
      ],
      "name": "customerReputationLevels",
      "outputs": [
        {
          "internalType": "uint256",
          "name": "",
          "type": "uint256"
        }
      ],
      "stateMutability": "view",
      "type": "function"
    },
    {
      "inputs": [
        {
          "internalType": "uint256",
          "name": "orderId",
          "type": "uint256"
        }
      ],
      "name": "delivererCancelOrder",
      "outputs": [],
      "stateMutability": "nonpayable",
      "type": "function"
    },
    {
      "inputs": [
        {
          "internalType": "address",
          "name": "",
          "type": "address"
        }
      ],
      "name": "delivererHasActiveOrder",
      "outputs": [
        {
          "internalType": "bool",
          "name": "",
          "type": "bool"
        }
      ],
      "stateMutability": "view",
      "type": "function"
    },
    {
      "inputs": [],
      "name": "governanceToken",
      "outputs": [
        {
          "internalType": "address",
          "name": "",
          "type": "address"
        }
      ],
      "stateMutability": "view",
      "type": "function"
    },
    {
      "inputs": [],
      "name": "orderCount",
      "outputs": [
        {
          "internalType": "uint256",
          "name": "",
          "type": "uint256"
        }
      ],
      "stateMutability": "view",
      "type": "function"
    },
    {
      "inputs": [
        {
          "internalType": "uint256",
          "name": "",
          "type": "uint256"
        }
      ],
      "name": "orders",
      "outputs": [
        {
          "internalType": "address",
          "name": "customer",
          "type": "address"
        },
        {
          "internalType": "address",
          "name": "deliverer",
          "type": "address"
        },
        {
          "internalType": "uint256",
          "name": "amount",
          "type": "uint256"
        },
        {
          "internalType": "uint256",
          "name": "timestamp",
          "type": "uint256"
        },
        {
          "internalType": "bytes",
          "name": "encryptedParams",
          "type": "bytes"
        },
        {
          "internalType": "bool",
          "name": "isAccepted",
          "type": "bool"
        },
        {
          "internalType": "bool",
          "name": "isCompleted",
          "type": "bool"
        }
      ],
      "stateMutability": "view",
      "type": "function"
    },
    {
      "inputs": [],
      "name": "owner",
      "outputs": [
        {
          "internalType": "address",
          "name": "",
          "type": "address"
        }
      ],
      "stateMutability": "view",
      "type": "function"
    },
    {
      "inputs": [],
      "name": "renounceOwnership",
      "outputs": [],
      "stateMutability": "nonpayable",
      "type": "function"
    },
    {
      "inputs": [
        {
          "internalType": "address",
          "name": "",
          "type": "address"
        }
      ],
      "name": "reputation",
      "outputs": [
        {
          "internalType": "uint256",
          "name": "",
          "type": "uint256"
        }
      ],
      "stateMutability": "view",
      "type": "function"
    },
    {
      "inputs": [
        {
          "internalType": "uint256",
          "name": "",
          "type": "uint256"
        }
      ],
      "name": "reputationLevels",
      "outputs": [
        {
          "internalType": "uint256",
          "name": "",
          "type": "uint256"
        }
      ],
      "stateMutability": "view",
      "type": "function"
    },
    {
      "inputs": [],
      "name": "stakeTokens",
      "outputs": [],
      "stateMutability": "nonpayable",
      "type": "function"
    },
    {
      "inputs": [
        {
          "internalType": "address",
          "name": "",
          "type": "address"
        }
      ],
      "name": "stakedTokens",
      "outputs": [
        {
          "internalType": "uint256",
          "name": "",
          "type": "uint256"
        }
      ],
      "stateMutability": "view",
      "type": "function"
    },
    {
      "inputs": [],
      "name": "transactionCurrencyToken",
      "outputs": [
        {
          "internalType": "address",
          "name": "",
          "type": "address"
        }
      ],
      "stateMutability": "view",
      "type": "function"
    },
    {
      "inputs": [
        {
          "internalType": "address",
          "name": "newOwner",
          "type": "address"
        }
      ],
      "name": "transferOwnership",
      "outputs": [],
      "stateMutability": "nonpayable",
      "type": "function"
    },
    {
      "inputs": [
        {
          "internalType": "uint256",
          "name": "_amount",
          "type": "uint256"
        }
      ],
      "name": "unstakeTokens",
      "outputs": [],
      "stateMutability": "nonpayable",
      "type": "function"
    },
    {
      "inputs": [],
      "name": "verifyWorldCoin",
      "outputs": [],
      "stateMutability": "nonpayable",
      "type": "function"
    }
  ],
  "bytecode": "0x60806040526000600a553480156200001657600080fd5b5060405162003c7e38038062003c7e83398181016040528101906200003c919062000236565b6200005c620000506200010060201b60201c565b6200010860201b60201c565b81600860006101000a81548173ffffffffffffffffffffffffffffffffffffffff021916908373ffffffffffffffffffffffffffffffffffffffff16021790555080600960006101000a81548173ffffffffffffffffffffffffffffffffffffffff021916908373ffffffffffffffffffffffffffffffffffffffff160217905550606460056000600181526020019081526020016000208190555050506200027d565b600033905090565b60008060009054906101000a900473ffffffffffffffffffffffffffffffffffffffff169050816000806101000a81548173ffffffffffffffffffffffffffffffffffffffff021916908373ffffffffffffffffffffffffffffffffffffffff1602179055508173ffffffffffffffffffffffffffffffffffffffff168173ffffffffffffffffffffffffffffffffffffffff167f8be0079c531659141344cd1fd0a4f28419497f9722a3daafe3b4186f6b6457e060405160405180910390a35050565b600080fd5b600073ffffffffffffffffffffffffffffffffffffffff82169050919050565b6000620001fe82620001d1565b9050919050565b6200021081620001f1565b81146200021c57600080fd5b50565b600081519050620002308162000205565b92915050565b6000806040838503121562000250576200024f620001cc565b5b600062000260858286016200021f565b925050602062000273858286016200021f565b9150509250929050565b6139f1806200028d6000396000f3fe608060405234801561001057600080fd5b50600436106101725760003560e01c8063981436df116100de578063ce46643b11610097578063f2fde38b11610071578063f2fde38b146103ff578063f85be0711461041b578063f96dae0a1461044b578063fcc3fcf51461046957610172565b8063ce46643b146103bd578063e11e30c1146103c7578063ef18e9ed146103e357610172565b8063981436df146102d1578063a5b39cfb146102ed578063a85c38ef1461031d578063b14deecf14610353578063b9f794511461036f578063bd8d64d91461039f57610172565b806355d405641161013057806355d4056414610237578063608e4dd014610241578063646ff38f1461025d578063715018a6146102795780638da5cb5b14610283578063942b23da146102a157610172565b8062cb336c1461017757806322be98ee146101955780632453ffa8146101b15780633112f054146101cf57806346053332146101eb578063514fcac71461021b575b600080fd5b61017f610499565b60405161018c91906123fe565b60405180910390f35b6101af60048036038101906101aa91906125a9565b6104bf565b005b6101b961076f565b6040516101c69190612614565b60405180910390f35b6101e960048036038101906101e4919061262f565b610775565b005b6102056004803603810190610200919061262f565b610a62565b6040516102129190612614565b60405180910390f35b6102356004803603810190610230919061262f565b610a7a565b005b61023f610cb9565b005b61025b6004803603810190610256919061262f565b610cbb565b005b6102776004803603810190610272919061262f565b610f76565b005b6102816112a1565b005b61028b6112b5565b60405161029891906123fe565b60405180910390f35b6102bb60048036038101906102b6919061262f565b6112de565b6040516102c89190612614565b60405180910390f35b6102eb60048036038101906102e6919061265c565b6112f6565b005b610307600480360381019061030291906126e4565b6117be565b6040516103149190612614565b60405180910390f35b6103376004803603810190610332919061262f565b6117d6565b60405161034a97969594939291906127ab565b60405180910390f35b61036d60048036038101906103689190612821565b6118fa565b005b610389600480360381019061038491906126e4565b61191e565b6040516103969190612614565b60405180910390f35b6103a7611936565b6040516103b49190612614565b60405180910390f35b6103c561193b565b005b6103e160048036038101906103dc9190612861565b611afa565b005b6103fd60048036038101906103f8919061262f565b611b88565b005b610419600480360381019061041491906126e4565b611e9c565b005b610435600480360381019061043091906126e4565b611f1f565b60405161044291906128a1565b60405180910390f35b610453611f3f565b60405161046091906123fe565b60405180910390f35b610483600480360381019061047e91906126e4565b611f65565b6040516104909190612614565b60405180910390f35b600960009054906101000a900473ffffffffffffffffffffffffffffffffffffffff1681565b600960009054906101000a900473ffffffffffffffffffffffffffffffffffffffff1673ffffffffffffffffffffffffffffffffffffffff166323b872dd3330846040518463ffffffff1660e01b815260040161051e939291906128bc565b6020604051808303816000875af115801561053d573d6000803e3d6000fd5b505050506040513d601f19601f82011682018060405250810190610561919061291f565b6105a0576040517f08c379a0000000000000000000000000000000000000000000000000000000008152600401610597906129a9565b60405180910390fd5b600a60008154809291906105b3906129f8565b91905055506040518060e001604052803373ffffffffffffffffffffffffffffffffffffffff168152602001600073ffffffffffffffffffffffffffffffffffffffff1681526020018281526020014281526020018381526020016000151581526020016000151581525060046000600a54815260200190815260200160002060008201518160000160006101000a81548173ffffffffffffffffffffffffffffffffffffffff021916908373ffffffffffffffffffffffffffffffffffffffff16021790555060208201518160010160006101000a81548173ffffffffffffffffffffffffffffffffffffffff021916908373ffffffffffffffffffffffffffffffffffffffff160217905550604082015181600201556060820151816003015560808201518160040190816106ea9190612c4c565b5060a08201518160050160006101000a81548160ff02191690831515021790555060c08201518160050160016101000a81548160ff0219169083151502179055509050507f5d9c5281df05a526392db222829eab2c8edfc0faf6a214774d4d19e49a5c2e92600a54338460405161076393929190612d1e565b60405180910390a15050565b600a5481565b6000600460008381526020019081526020016000209050612a3081600301544261079f9190612d5c565b116107df576040517f08c379a00000000000000000000000000000000000000000000000000000000081526004016107d690612ddc565b60405180910390fd5b8060050160019054906101000a900460ff1615610831576040517f08c379a000000000000000000000000000000000000000000000000000000000815260040161082890612e48565b60405180910390fd5b600960009054906101000a900473ffffffffffffffffffffffffffffffffffffffff1673ffffffffffffffffffffffffffffffffffffffff1663a9059cbb8260000160009054906101000a900473ffffffffffffffffffffffffffffffffffffffff1683600201546040518363ffffffff1660e01b81526004016108b6929190612e68565b6020604051808303816000875af11580156108d5573d6000803e3d6000fd5b505050506040513d601f19601f820116820180604052508101906108f9919061291f565b610938576040517f08c379a000000000000000000000000000000000000000000000000000000000815260040161092f90612edd565b60405180910390fd5b60018060008360010160009054906101000a900473ffffffffffffffffffffffffffffffffffffffff1673ffffffffffffffffffffffffffffffffffffffff1673ffffffffffffffffffffffffffffffffffffffff16815260200190815260200160002060008282546109ab9190612d5c565b925050819055508060010160009054906101000a900473ffffffffffffffffffffffffffffffffffffffff1673ffffffffffffffffffffffffffffffffffffffff167f2335231cd412e7496a6880a85ed0772f63cd2e9d854ca1da314006e6dd03d7726001604051610a1d9190612f38565b60405180910390a27fc0362da6f2ff36b382b34aec0814f6b3cdf89f5ef282a1d1f114d0c0b036d5968233604051610a56929190612f53565b60405180910390a15050565b60066020528060005260406000206000915090505481565b60006004600083815260200190815260200160002090508060000160009054906101000a900473ffffffffffffffffffffffffffffffffffffffff1673ffffffffffffffffffffffffffffffffffffffff163373ffffffffffffffffffffffffffffffffffffffff1614610b23576040517f08c379a0000000000000000000000000000000000000000000000000000000008152600401610b1a90612fee565b60405180910390fd5b8060050160009054906101000a900460ff1615610b75576040517f08c379a0000000000000000000000000000000000000000000000000000000008152600401610b6c90613080565b60405180910390fd5b600960009054906101000a900473ffffffffffffffffffffffffffffffffffffffff1673ffffffffffffffffffffffffffffffffffffffff1663a9059cbb8260000160009054906101000a900473ffffffffffffffffffffffffffffffffffffffff1683600201546040518363ffffffff1660e01b8152600401610bfa929190612e68565b6020604051808303816000875af1158015610c19573d6000803e3d6000fd5b505050506040513d601f19601f82011682018060405250810190610c3d919061291f565b610c7c576040517f08c379a0000000000000000000000000000000000000000000000000000000008152600401610c7390612edd565b60405180910390fd5b7fc0362da6f2ff36b382b34aec0814f6b3cdf89f5ef282a1d1f114d0c0b036d5968233604051610cad929190612f53565b60405180910390a15050565b565b6000670de0b6b3a764000082610cd191906130a0565b905080600360003373ffffffffffffffffffffffffffffffffffffffff1673ffffffffffffffffffffffffffffffffffffffff168152602001908152602001600020541015610d55576040517f08c379a0000000000000000000000000000000000000000000000000000000008152600401610d4c9061312e565b60405180910390fd5b80600160003373ffffffffffffffffffffffffffffffffffffffff1673ffffffffffffffffffffffffffffffffffffffff168152602001908152602001600020541015610dd7576040517f08c379a0000000000000000000000000000000000000000000000000000000008152600401610dce906131c0565b60405180910390fd5b80600360003373ffffffffffffffffffffffffffffffffffffffff1673ffffffffffffffffffffffffffffffffffffffff1681526020019081526020016000206000828254610e269190612d5c565b9250508190555081600160003373ffffffffffffffffffffffffffffffffffffffff1673ffffffffffffffffffffffffffffffffffffffff1681526020019081526020016000206000828254610e7c9190612d5c565b92505081905550600860009054906101000a900473ffffffffffffffffffffffffffffffffffffffff1673ffffffffffffffffffffffffffffffffffffffff1663a9059cbb33836040518363ffffffff1660e01b8152600401610ee0929190612e68565b6020604051808303816000875af1158015610eff573d6000803e3d6000fd5b505050506040513d601f19601f82011682018060405250810190610f23919061291f565b503373ffffffffffffffffffffffffffffffffffffffff167f2335231cd412e7496a6880a85ed0772f63cd2e9d854ca1da314006e6dd03d77283604051610f6a9190612614565b60405180910390a25050565b60006004600083815260200190815260200160002090508060010160009054906101000a900473ffffffffffffffffffffffffffffffffffffffff1673ffffffffffffffffffffffffffffffffffffffff163373ffffffffffffffffffffffffffffffffffffffff161461101f576040517f08c379a000000000000000000000000000000000000000000000000000000000815260040161101690613252565b60405180910390fd5b8060050160009054906101000a900460ff16611070576040517f08c379a0000000000000000000000000000000000000000000000000000000008152600401611067906132be565b60405180910390fd5b600960009054906101000a900473ffffffffffffffffffffffffffffffffffffffff1673ffffffffffffffffffffffffffffffffffffffff1663a9059cbb8260000160009054906101000a900473ffffffffffffffffffffffffffffffffffffffff1683600201546040518363ffffffff1660e01b81526004016110f5929190612e68565b6020604051808303816000875af1158015611114573d6000803e3d6000fd5b505050506040513d601f19601f82011682018060405250810190611138919061291f565b611177576040517f08c379a000000000000000000000000000000000000000000000000000000000815260040161116e90612edd565b60405180910390fd5b8060010160009054906101000a900473ffffffffffffffffffffffffffffffffffffffff1673ffffffffffffffffffffffffffffffffffffffff167f2335231cd412e7496a6880a85ed0772f63cd2e9d854ca1da314006e6dd03d77260016040516111e29190612f38565b60405180910390a260018060008360010160009054906101000a900473ffffffffffffffffffffffffffffffffffffffff1673ffffffffffffffffffffffffffffffffffffffff1673ffffffffffffffffffffffffffffffffffffffff168152602001908152602001600020600082825461125d9190612d5c565b925050819055507fc0362da6f2ff36b382b34aec0814f6b3cdf89f5ef282a1d1f114d0c0b036d5968233604051611295929190612f53565b60405180910390a15050565b6112a9611f7d565b6112b36000611ffb565b565b60008060009054906101000a900473ffffffffffffffffffffffffffffffffffffffff16905090565b60056020528060005260406000206000915090505481565b60006004600084815260200190815260200160002090508060010160009054906101000a900473ffffffffffffffffffffffffffffffffffffffff1673ffffffffffffffffffffffffffffffffffffffff163373ffffffffffffffffffffffffffffffffffffffff161461139f576040517f08c379a000000000000000000000000000000000000000000000000000000000815260040161139690613350565b60405180910390fd5b8060050160009054906101000a900460ff166113f0576040517f08c379a00000000000000000000000000000000000000000000000000000000081526004016113e7906132be565b60405180910390fd5b60008360405160200161140391906133e8565b6040516020818303038152906040528051906020012090506000611426826120bf565b9050600061143482866120f5565b90508360000160009054906101000a900473ffffffffffffffffffffffffffffffffffffffff1673ffffffffffffffffffffffffffffffffffffffff168173ffffffffffffffffffffffffffffffffffffffff16146114c8576040517f08c379a00000000000000000000000000000000000000000000000000000000081526004016114bf9061345a565b60405180910390fd5b600960009054906101000a900473ffffffffffffffffffffffffffffffffffffffff1673ffffffffffffffffffffffffffffffffffffffff1663a9059cbb8560010160009054906101000a900473ffffffffffffffffffffffffffffffffffffffff1686600201546040518363ffffffff1660e01b815260040161154d929190612e68565b6020604051808303816000875af115801561156c573d6000803e3d6000fd5b505050506040513d601f19601f82011682018060405250810190611590919061291f565b6115cf576040517f08c379a00000000000000000000000000000000000000000000000000000000081526004016115c6906134ec565b60405180910390fd5b60018460050160016101000a81548160ff02191690831515021790555060018060003373ffffffffffffffffffffffffffffffffffffffff1673ffffffffffffffffffffffffffffffffffffffff168152602001908152602001600020600082825461163b919061350c565b925050819055506001600260008660000160009054906101000a900473ffffffffffffffffffffffffffffffffffffffff1673ffffffffffffffffffffffffffffffffffffffff1673ffffffffffffffffffffffffffffffffffffffff16815260200190815260200160002060008282546116b6919061350c565b925050819055503373ffffffffffffffffffffffffffffffffffffffff167fb13c3a23619fd9c27b8a17467896436b540ac47d619112042f377edf4040739260016040516117049190612f38565b60405180910390a28360000160009054906101000a900473ffffffffffffffffffffffffffffffffffffffff1673ffffffffffffffffffffffffffffffffffffffff167f708b16590d7d5a067d5fb66b73ab37794e6eb26a06749829cda154faa30a590b60016040516117779190612f38565b60405180910390a27f02a7d4d9472af7118644884b9a0ee443540c0027e938dd0aa35be8ecbe946c0a866040516117ae9190612614565b60405180910390a1505050505050565b60036020528060005260406000206000915090505481565b60046020528060005260406000206000915090508060000160009054906101000a900473ffffffffffffffffffffffffffffffffffffffff16908060010160009054906101000a900473ffffffffffffffffffffffffffffffffffffffff169080600201549080600301549080600401805461185190612a6f565b80601f016020809104026020016040519081016040528092919081815260200182805461187d90612a6f565b80156118ca5780601f1061189f576101008083540402835291602001916118ca565b820191906000526020600020905b8154815290600101906020018083116118ad57829003601f168201915b5050505050908060050160009054906101000a900460ff16908060050160019054906101000a900460ff16905087565b611902611f7d565b8160056000838152602001908152602001600020819055505050565b60016020528060005260406000206000915090505481565b600581565b6000606490506000670de0b6b3a76400008261195791906130a0565b9050600860009054906101000a900473ffffffffffffffffffffffffffffffffffffffff1673ffffffffffffffffffffffffffffffffffffffff166323b872dd3330846040518463ffffffff1660e01b81526004016119b8939291906128bc565b6020604051808303816000875af11580156119d7573d6000803e3d6000fd5b505050506040513d601f19601f820116820180604052508101906119fb919061291f565b5081600160003373ffffffffffffffffffffffffffffffffffffffff1673ffffffffffffffffffffffffffffffffffffffff1681526020019081526020016000206000828254611a4b919061350c565b9250508190555080600360003373ffffffffffffffffffffffffffffffffffffffff1673ffffffffffffffffffffffffffffffffffffffff1681526020019081526020016000206000828254611aa1919061350c565b925050819055503373ffffffffffffffffffffffffffffffffffffffff167fb13c3a23619fd9c27b8a17467896436b540ac47d619112042f377edf4040739283604051611aee9190612614565b60405180910390a25050565b611b02611f7d565b81600860006101000a81548173ffffffffffffffffffffffffffffffffffffffff021916908373ffffffffffffffffffffffffffffffffffffffff16021790555080600960006101000a81548173ffffffffffffffffffffffffffffffffffffffff021916908373ffffffffffffffffffffffffffffffffffffffff1602179055505050565b6000600460008381526020019081526020016000209050600560006001815260200190815260200160002054600160003373ffffffffffffffffffffffffffffffffffffffff1673ffffffffffffffffffffffffffffffffffffffff168152602001908152602001600020541015611c35576040517f08c379a0000000000000000000000000000000000000000000000000000000008152600401611c2c9061358c565b60405180910390fd5b600760003373ffffffffffffffffffffffffffffffffffffffff1673ffffffffffffffffffffffffffffffffffffffff16815260200190815260200160002060009054906101000a900460ff1615611cc2576040517f08c379a0000000000000000000000000000000000000000000000000000000008152600401611cb99061361e565b60405180910390fd5b600073ffffffffffffffffffffffffffffffffffffffff168160010160009054906101000a900473ffffffffffffffffffffffffffffffffffffffff1673ffffffffffffffffffffffffffffffffffffffff1614611d55576040517f08c379a0000000000000000000000000000000000000000000000000000000008152600401611d4c9061368a565b60405180910390fd5b8060050160019054906101000a900460ff1615611da7576040517f08c379a0000000000000000000000000000000000000000000000000000000008152600401611d9e90612e48565b60405180910390fd5b338160010160006101000a81548173ffffffffffffffffffffffffffffffffffffffff021916908373ffffffffffffffffffffffffffffffffffffffff16021790555060018160050160006101000a81548160ff0219169083151502179055506001600760003373ffffffffffffffffffffffffffffffffffffffff1673ffffffffffffffffffffffffffffffffffffffff16815260200190815260200160002060006101000a81548160ff0219169083151502179055507fa3a9d59445e437d97cac53692b666afef6c152b0642edd206bde8472f387e59a8233604051611e90929190612f53565b60405180910390a15050565b611ea4611f7d565b600073ffffffffffffffffffffffffffffffffffffffff168173ffffffffffffffffffffffffffffffffffffffff1603611f13576040517f08c379a0000000000000000000000000000000000000000000000000000000008152600401611f0a9061371c565b60405180910390fd5b611f1c81611ffb565b50565b60076020528060005260406000206000915054906101000a900460ff1681565b600860009054906101000a900473ffffffffffffffffffffffffffffffffffffffff1681565b60026020528060005260406000206000915090505481565b611f8561211c565b73ffffffffffffffffffffffffffffffffffffffff16611fa36112b5565b73ffffffffffffffffffffffffffffffffffffffff1614611ff9576040517f08c379a0000000000000000000000000000000000000000000000000000000008152600401611ff090613788565b60405180910390fd5b565b60008060009054906101000a900473ffffffffffffffffffffffffffffffffffffffff169050816000806101000a81548173ffffffffffffffffffffffffffffffffffffffff021916908373ffffffffffffffffffffffffffffffffffffffff1602179055508173ffffffffffffffffffffffffffffffffffffffff168173ffffffffffffffffffffffffffffffffffffffff167f8be0079c531659141344cd1fd0a4f28419497f9722a3daafe3b4186f6b6457e060405160405180910390a35050565b60007f19457468657265756d205369676e6564204d6573736167653a0a33320000000060005281601c52603c6000209050919050565b60008060006121048585612124565b9150915061211181612175565b819250505092915050565b600033905090565b60008060418351036121655760008060006020860151925060408601519150606086015160001a9050612159878285856122db565b9450945050505061216e565b60006002915091505b9250929050565b60006004811115612189576121886137a8565b5b81600481111561219c5761219b6137a8565b5b03156122d857600160048111156121b6576121b56137a8565b5b8160048111156121c9576121c86137a8565b5b03612209576040517f08c379a000000000000000000000000000000000000000000000000000000000815260040161220090613823565b60405180910390fd5b6002600481111561221d5761221c6137a8565b5b8160048111156122305761222f6137a8565b5b03612270576040517f08c379a00000000000000000000000000000000000000000000000000000000081526004016122679061388f565b60405180910390fd5b60036004811115612284576122836137a8565b5b816004811115612297576122966137a8565b5b036122d7576040517f08c379a00000000000000000000000000000000000000000000000000000000081526004016122ce90613921565b60405180910390fd5b5b50565b6000807f7fffffffffffffffffffffffffffffff5d576e7357a4501ddfe92f46681b20a08360001c11156123165760006003915091506123b4565b60006001878787876040516000815260200160405260405161233b9493929190613976565b6020604051602081039080840390855afa15801561235d573d6000803e3d6000fd5b505050602060405103519050600073ffffffffffffffffffffffffffffffffffffffff168173ffffffffffffffffffffffffffffffffffffffff16036123ab576000600192509250506123b4565b80600092509250505b94509492505050565b600073ffffffffffffffffffffffffffffffffffffffff82169050919050565b60006123e8826123bd565b9050919050565b6123f8816123dd565b82525050565b600060208201905061241360008301846123ef565b92915050565b6000604051905090565b600080fd5b600080fd5b600080fd5b600080fd5b6000601f19601f8301169050919050565b7f4e487b7100000000000000000000000000000000000000000000000000000000600052604160045260246000fd5b61248082612437565b810181811067ffffffffffffffff8211171561249f5761249e612448565b5b80604052505050565b60006124b2612419565b90506124be8282612477565b919050565b600067ffffffffffffffff8211156124de576124dd612448565b5b6124e782612437565b9050602081019050919050565b82818337600083830152505050565b6000612516612511846124c3565b6124a8565b90508281526020810184848401111561253257612531612432565b5b61253d8482856124f4565b509392505050565b600082601f83011261255a5761255961242d565b5b813561256a848260208601612503565b91505092915050565b6000819050919050565b61258681612573565b811461259157600080fd5b50565b6000813590506125a38161257d565b92915050565b600080604083850312156125c0576125bf612423565b5b600083013567ffffffffffffffff8111156125de576125dd612428565b5b6125ea85828601612545565b92505060206125fb85828601612594565b9150509250929050565b61260e81612573565b82525050565b60006020820190506126296000830184612605565b92915050565b60006020828403121561264557612644612423565b5b600061265384828501612594565b91505092915050565b6000806040838503121561267357612672612423565b5b600061268185828601612594565b925050602083013567ffffffffffffffff8111156126a2576126a1612428565b5b6126ae85828601612545565b9150509250929050565b6126c1816123dd565b81146126cc57600080fd5b50565b6000813590506126de816126b8565b92915050565b6000602082840312156126fa576126f9612423565b5b6000612708848285016126cf565b91505092915050565b600081519050919050565b600082825260208201905092915050565b60005b8381101561274b578082015181840152602081019050612730565b60008484015250505050565b600061276282612711565b61276c818561271c565b935061277c81856020860161272d565b61278581612437565b840191505092915050565b60008115159050919050565b6127a581612790565b82525050565b600060e0820190506127c0600083018a6123ef565b6127cd60208301896123ef565b6127da6040830188612605565b6127e76060830187612605565b81810360808301526127f98186612757565b905061280860a083018561279c565b61281560c083018461279c565b98975050505050505050565b6000806040838503121561283857612837612423565b5b600061284685828601612594565b925050602061285785828601612594565b9150509250929050565b6000806040838503121561287857612877612423565b5b6000612886858286016126cf565b9250506020612897858286016126cf565b9150509250929050565b60006020820190506128b6600083018461279c565b92915050565b60006060820190506128d160008301866123ef565b6128de60208301856123ef565b6128eb6040830184612605565b949350505050565b6128fc81612790565b811461290757600080fd5b50565b600081519050612919816128f3565b92915050565b60006020828403121561293557612934612423565b5b60006129438482850161290a565b91505092915050565b600082825260208201905092915050565b7f546f6b656e207472616e73666572206661696c65640000000000000000000000600082015250565b600061299360158361294c565b915061299e8261295d565b602082019050919050565b600060208201905081810360008301526129c281612986565b9050919050565b7f4e487b7100000000000000000000000000000000000000000000000000000000600052601160045260246000fd5b6000612a0382612573565b91507fffffffffffffffffffffffffffffffffffffffffffffffffffffffffffffffff8203612a3557612a346129c9565b5b600182019050919050565b7f4e487b7100000000000000000000000000000000000000000000000000000000600052602260045260246000fd5b60006002820490506001821680612a8757607f821691505b602082108103612a9a57612a99612a40565b5b50919050565b60008190508160005260206000209050919050565b60006020601f8301049050919050565b600082821b905092915050565b600060088302612b027fffffffffffffffffffffffffffffffffffffffffffffffffffffffffffffffff82612ac5565b612b0c8683612ac5565b95508019841693508086168417925050509392505050565b6000819050919050565b6000612b49612b44612b3f84612573565b612b24565b612573565b9050919050565b6000819050919050565b612b6383612b2e565b612b77612b6f82612b50565b848454612ad2565b825550505050565b600090565b612b8c612b7f565b612b97818484612b5a565b505050565b5b81811015612bbb57612bb0600082612b84565b600181019050612b9d565b5050565b601f821115612c0057612bd181612aa0565b612bda84612ab5565b81016020851015612be9578190505b612bfd612bf585612ab5565b830182612b9c565b50505b505050565b600082821c905092915050565b6000612c2360001984600802612c05565b1980831691505092915050565b6000612c3c8383612c12565b9150826002028217905092915050565b612c5582612711565b67ffffffffffffffff811115612c6e57612c6d612448565b5b612c788254612a6f565b612c83828285612bbf565b600060209050601f831160018114612cb65760008415612ca4578287015190505b612cae8582612c30565b865550612d16565b601f198416612cc486612aa0565b60005b82811015612cec57848901518255600182019150602085019450602081019050612cc7565b86831015612d095784890151612d05601f891682612c12565b8355505b6001600288020188555050505b505050505050565b6000606082019050612d336000830186612605565b612d4060208301856123ef565b8181036040830152612d528184612757565b9050949350505050565b6000612d6782612573565b9150612d7283612573565b9250828203905081811115612d8a57612d896129c9565b5b92915050565b7f3320686f7572732068617665206e6f7420706173736564207965740000000000600082015250565b6000612dc6601b8361294c565b9150612dd182612d90565b602082019050919050565b60006020820190508181036000830152612df581612db9565b9050919050565b7f4f7264657220697320616c726561647920636f6d706c65746564000000000000600082015250565b6000612e32601a8361294c565b9150612e3d82612dfc565b602082019050919050565b60006020820190508181036000830152612e6181612e25565b9050919050565b6000604082019050612e7d60008301856123ef565b612e8a6020830184612605565b9392505050565b7f546f6b656e20726566756e64206661696c656400000000000000000000000000600082015250565b6000612ec760138361294c565b9150612ed282612e91565b602082019050919050565b60006020820190508181036000830152612ef681612eba565b9050919050565b6000819050919050565b6000612f22612f1d612f1884612efd565b612b24565b612573565b9050919050565b612f3281612f07565b82525050565b6000602082019050612f4d6000830184612f29565b92915050565b6000604082019050612f686000830185612605565b612f7560208301846123ef565b9392505050565b7f4f6e6c792074686520637573746f6d65722063616e2063616e63656c2074686560008201527f206f726465720000000000000000000000000000000000000000000000000000602082015250565b6000612fd860268361294c565b9150612fe382612f7c565b604082019050919050565b6000602082019050818103600083015261300781612fcb565b9050919050565b7f4f726465722068617320616c7265616479206265656e2061636365707465642060008201527f627920612064656c697665726572000000000000000000000000000000000000602082015250565b600061306a602e8361294c565b91506130758261300e565b604082019050919050565b600060208201905081810360008301526130998161305d565b9050919050565b60006130ab82612573565b91506130b683612573565b92508282026130c481612573565b915082820484148315176130db576130da6129c9565b5b5092915050565b7f4e6f7420656e6f756768207374616b656420746f6b656e730000000000000000600082015250565b600061311860188361294c565b9150613123826130e2565b602082019050919050565b600060208201905081810360008301526131478161310b565b9050919050565b7f52657075746174696f6e206973206c657373207468616e2074686520616d6f7560008201527f6e7420746f20756e7374616b6500000000000000000000000000000000000000602082015250565b60006131aa602d8361294c565b91506131b58261314e565b604082019050919050565b600060208201905081810360008301526131d98161319d565b9050919050565b7f4f6e6c79207468652061737369676e65642064656c6976657265722063616e2060008201527f63616e63656c20746865206f7264657200000000000000000000000000000000602082015250565b600061323c60308361294c565b9150613247826131e0565b604082019050919050565b6000602082019050818103600083015261326b8161322f565b9050919050565b7f4f7264657220686173206e6f74206265656e2061636365707465642079657400600082015250565b60006132a8601f8361294c565b91506132b382613272565b602082019050919050565b600060208201905081810360008301526132d78161329b565b9050919050565b7f4f6e6c79207468652061737369676e65642064656c6976657265722063616e2060008201527f636f6d706c65746520746865206f726465720000000000000000000000000000602082015250565b600061333a60328361294c565b9150613345826132de565b604082019050919050565b600060208201905081810360008301526133698161332d565b9050919050565b600081905092915050565b7f4f7264657220436f6d706c657465640000000000000000000000000000000000600082015250565b60006133b1600f83613370565b91506133bc8261337b565b600f82019050919050565b6000819050919050565b6133e26133dd82612573565b6133c7565b82525050565b60006133f3826133a4565b91506133ff82846133d1565b60208201915081905092915050565b7f496e76616c6964207369676e6174757265000000000000000000000000000000600082015250565b600061344460118361294c565b915061344f8261340e565b602082019050919050565b6000602082019050818103600083015261347381613437565b9050919050565b7f546f6b656e207472616e7366657220746f2064656c697665726572206661696c60008201527f6564000000000000000000000000000000000000000000000000000000000000602082015250565b60006134d660228361294c565b91506134e18261347a565b604082019050919050565b60006020820190508181036000830152613505816134c9565b9050919050565b600061351782612573565b915061352283612573565b925082820190508082111561353a576135396129c9565b5b92915050565b7f4e6f7420656e6f7567682072657075746174696f6e2100000000000000000000600082015250565b600061357660168361294c565b915061358182613540565b602082019050919050565b600060208201905081810360008301526135a581613569565b9050919050565b7f44656c69766572657220616c72656164792068617320616e206163746976652060008201527f6f72646572210000000000000000000000000000000000000000000000000000602082015250565b600061360860268361294c565b9150613613826135ac565b604082019050919050565b60006020820190508181036000830152613637816135fb565b9050919050565b7f4f7264657220616c72656164792068617320612064656c697665726572000000600082015250565b6000613674601d8361294c565b915061367f8261363e565b602082019050919050565b600060208201905081810360008301526136a381613667565b9050919050565b7f4f776e61626c653a206e6577206f776e657220697320746865207a65726f206160008201527f6464726573730000000000000000000000000000000000000000000000000000602082015250565b600061370660268361294c565b9150613711826136aa565b604082019050919050565b60006020820190508181036000830152613735816136f9565b9050919050565b7f4f776e61626c653a2063616c6c6572206973206e6f7420746865206f776e6572600082015250565b600061377260208361294c565b915061377d8261373c565b602082019050919050565b600060208201905081810360008301526137a181613765565b9050919050565b7f4e487b7100000000000000000000000000000000000000000000000000000000600052602160045260246000fd5b7f45434453413a20696e76616c6964207369676e61747572650000000000000000600082015250565b600061380d60188361294c565b9150613818826137d7565b602082019050919050565b6000602082019050818103600083015261383c81613800565b9050919050565b7f45434453413a20696e76616c6964207369676e6174757265206c656e67746800600082015250565b6000613879601f8361294c565b915061388482613843565b602082019050919050565b600060208201905081810360008301526138a88161386c565b9050919050565b7f45434453413a20696e76616c6964207369676e6174757265202773272076616c60008201527f7565000000000000000000000000000000000000000000000000000000000000602082015250565b600061390b60228361294c565b9150613916826138af565b604082019050919050565b6000602082019050818103600083015261393a816138fe565b9050919050565b6000819050919050565b61395481613941565b82525050565b600060ff82169050919050565b6139708161395a565b82525050565b600060808201905061398b600083018761394b565b6139986020830186613967565b6139a5604083018561394b565b6139b2606083018461394b565b9594505050505056fea264697066735822122071a5f5bf97f85cd3f16f5f2519768e0be60bc2daf2093e5947bde1a58b4670b564736f6c63430008130033",
  "linkReferences": {},
  "deployedLinkReferences": {}
}